:100000000C949C040C94E3040C94E3040C94E3041B
:100010000C94E3040C94E3040C94E3040C94E304C4
:100020000C94E3040C94E3040C94821F0C9455206C
:100030000C948F160C94E3040C94E3040C94E304E6
:100040000C94E3040C94E3040C94E3040C94E30494
:100050000C94E3040C94F0160C94E3040C94E30465
:100060000C94E3040C94E3040C94E3040C94E30474
:100070000C94E3040C94E3040C94E3040C94E30464
:100080000C94E3040C94E3040C94E3040C94E30454
:100090000C94E3040C94E3040C94E3040C94E30444
:1000A0000C94E3040C94E3040C94E30429001E0074
:1000B0001F0020002100220023002400250026002C
:1000C00027002B0014001A000800150017001D005F
:1000D00018000C001200130039000400160007007D
:1000E00009000A000B000D000E000F002A00E100BD
:1000F0001C001B000600190005001100100036004E
:1001000037002800E000E200E300015100002C006D
:1001100031705000510052004F0001003A003B0086
:100120003C003D003E003F000100010001000100D5
:10013000010040004100420043004400450001002E
:1001400001000100010001000100010001000100A7
:100150000100010001000100010001000100010097
:100160000100010001000100010001000100010087
:100170000100010001000100010000000100010078
:100180000100010001000100010001000100010067
:100190000100010001000100010001000100010057
:1001A0000100010001000100010001000100010047
:1001B0000100010001000100010001000100010037
:1001C0000100010001000100010001000100010027
:1001D0000100010001000100010001000100010017
:1001E0000100010001000100000001000100010008
:1001F00001000100010001000100010001000100F7
:1002000001000100010001000100010001000100E6
:1002100001000100010001000100010001000100D6
:1002200001000100010001000100010001000100C6
:1002300001000100010001000100010001000100B6
:1002400001000100010001000100010001000100A6
:100250000100010001000000010001000100010097
:100260000100010001000100010001000100010086
:100270000100010001000100010001000100010076
:100280000100010001000100010001000100010066
:100290000100010001000100010001000100010056
:1002A0000100010001000100010001000100010046
:1002B0000100010001000100010001000100010036
:1002C0000100010000000100010001000100010027
:1002D0000100010001000100010001000100010016
:1002E0000100010001000100010001000100010006
:1002F00001000100010001000100010001000100F6
:1003000001000100010001000100010001000100E5
:1003100001000100010001000100010001000100D5
:1003200001000100010001000100010001000100C5
:1003300001000000010001000100010001000100B6
:1003400001000100010001000100010001000100A5
:100350000100010001000100010001000100010095
:100360000100010001000100010001000100010085
:100370000100010001000100010001000100010075
:100380000100010001000100010001000100010065
:100390000100010001000100010001000100010055
:1003A0000000010001000100010001000100010046
:1003B0000100010001000100010001000100010035
:1003C0000100010001000100010001000100010025
:1003D0000100010001000100010001000100010015
:1003E0000100010001000100010001000100010005
:1003F00001000100010001000100010001000100F5
:1004000001000100010001000100010001000000E5
:1004100001000100010001000100010001000100D4
:1004200001000100010001000100010001000100C4
:1004300001000100010001000100010001000100B4
:1004400001000100010001000100010001000100A4
:100450000100010001000100010001000100010094
:100460000100010001000100010001000100010084
:100470000100010001000100010001000000010075
:100480000100010001000100010001000100010064
:100490000100010001000100010001000100010054
:1004A0000100010001000100010001000100010044
:1004B0000100010001000100010001000100010034
:1004C0000100010001000100010001000100010024
:1004D0000100010001000100010001000100010014
:1004E0000100010001000100010000000100010005
:1004F00001000100010001000100010001000100F4
:1005000001000100010001000100010001000100E3
:1005100001000100010001000100010001000100D3
:1005200001000100010001000100010001000100C3
:1005300001000100010001000100010001000100B3
:1005400001000100010001000100010001000100A3
:100550000100010001000100000001000100010094
:100560000100010001000100010001000100010083
:100570000100010001000100010001000100010073
:100580000100010001000100010001000100010063
:100590000100010001000100010001000100010053
:1005A0000100010001000100010001000100010043
:1005B0000100010001000100010001000100010033
:1005C0000100010001000000010001000100010024
:1005D0000100010001000100010001000100010013
:1005E0000100010001000100010001000100010003
:1005F00001000100010001000100010001000100F3
:1006000001000100010001000100010001000100E2
:1006100001000100010001000100010001000100D2
:1006200001000100010001000100010001000100C2
:1006300001000100000001000100010001000100B3
:1006400001000100010001000100010001000100A2
:100650000100010001000100010001000100010092
:100660000100010001000100010001000100010082
:100670000100010001000100010001000100010072
:100680000100010001000100010001000100010062
:100690000100010001000100010001000100010052
:1006A0000100000001000100010001000100010043
:1006B0000100010001000100010001000100010032
:1006C0000100010001000100010001000100010022
:1006D0000100010001000100010001000100010012
:1006E0000100010001000100010001000100010002
:1006F00001000100010001000100010001000100F2
:1007000001000100010001000100010001000100E1
:1007100000000100010001000100010001000100D2
:1007200001000100010001000100010001000100C1
:1007300001000100010001000100010001000100B1
:1007400001000100010001000100010001000100A1
:100750000100010001000100010001000100010091
:100760000100010001000100010001000100010081
:100770000100010001000100010001000100000072
:1007800001000100010001000100010012036B00E3
:100790006500790062006F00610072006400000073
:1007A000160371006D006B006200750069006C003B
:1007B00064006500720000000403090409026D0072
:1007C000040100A0FA09040000010301010009214D
:1007D000110100012240000705810308000A0904F5
:1007E00001000103010200092111010001224D0055
:1007F0000705820308000A09040200010300000043
:100800000921110100012236000705830308000AAF
:100810000904030001030000000921110100012265
:1008200039000705840320000112011001000000B7
:1008300008EDFE606001000102000105010906A14A
:1008400001050719E029E7150025019508750181C3
:100850000205081901290595057501910295017593
:100860000391010507190029F71500250195F87571
:10087000018102C005010980A1018502160100263F
:1008800003001A81002A8300751095018100C005BC
:100890000C0901A1018503160100269C021A010022
:1008A0002A9C02751095018100C005010902A10171
:1008B0000901A10005091901290515002501950562
:1008C0007501810295017503810105010930093126
:1008D0001581257F95027508810609381581257FC8
:1008E000950175088106050C0A38021581257F954A
:1008F0000175088106C0C005010906A10105071997
:10090000E029E7150025019508750181029501751B
:1009100008810105081901290595057501910295C0
:1009200001750391010507190029FF150026FF0035
:10093000950675088100C00011241FBECFEFDAE0D4
:10094000DEBFCDBF04B603FE27C080913B0290916D
:100950003C02A0913D02B0913E028730904BA740EF
:10096000B04BD1F410923B0210923C0210923D0227
:1009700010923E0214BE84B7877F84BF0FB6F894EE
:10098000A89580916000886180936000109260005B
:100990000FBEE0E0F8E3099511E0A0E0B1E0E4E883
:1009A000F7E402C005900D92A833B107D9F722E011
:1009B000A8E3B1E001C01D92AB33B207E1F70E949A
:1009C000D81C0C9494230C94000090E080E00895CF
:1009D0000895089581E0089581FF07C0559A5D98B4
:1009E00082FF05C0539A5B9808955598F8CF5398A5
:1009F000FACF81E008950C94EA040E94E00E2FEFF4
:100A000084E39CE0215080409040E1F700C000006A
:100A10000C941317EF92FF920F931F93CF93DF93D2
:100A20008C01FC01E080F18080917201811140C055
:100A300082818823C1F1C7010E946514C82F682FE5
:100A4000C7010E940E14B7018C2F0E944206EC01D0
:100A5000B8010E94FB04882309F44BC0B801CE0101
:100A60000E944B08882309F444C0C531F0E7DF0732
:100A700020F5C23080E7D80708F04DC0C115E0E787
:100A8000DE0791F1C130D047E1F181E080933A0176
:100A900080933B01C801DF91CF911F910F91FF908F
:100AA000EF900C94F904C7010E943C14C82FCBCFDF
:100AB000C7010E946514B701C8CFCC3380E7D807BF
:100AC00009F49BC0CD33D04701F7F8018281882318
:100AD00009F4BAC010923B010E94BF1690933901ED
:100AE0008093380180E296C0F801828181110E94D2
:100AF000FD0480E0DF91CF911F910F91FF90EF9067
:100B00000895F80182818823A1F38091FB0181601F
:100B10008093FB01EECFF8018281882309F4BACFDC
:100B20000E942016811102C00E9406160E943D16E6
:100B300090E090932D0280932C02FE01E350F04749
:100B400080912C028160E231F10538F4EA56FC4DC7
:100B50000C94442380912C02826080932C0280911B
:100B60002C020E9441160E94E00EC3CF80912C02FD
:100B70008460F3CF80912C028860EFCF80912C02AB
:100B80008061EBCF80912C028062E7CF80912C02B4
:100B90008064E3CF80912C028068DFCF80912C02AB
:100BA0008C60DBCF80912C028E7FD7CF80912C027E
:100BB0008D7FD3CF80912C028B7FCFCF80912C0261
:100BC000877FCBCF80912C028F7EC7CF80912C0264
:100BD0008F7DC3CF80912C028F7BBFCF80912C0261
:100BE0008F77BBCF80912C02837FB7CF90912C025F
:100BF000892F97FB87F98058B0CFF801828188232D
:100C000061F010923A010E94BF16909339018093CF
:100C1000380182E00E94450C6CCF80913A0181112D
:100C20000FC080913801909139010E94CB16883C09
:100C3000910530F486E20E941A0B86E20E94F60BC0
:100C400082E00E944C0C55CF80913B0181110FC076
:100C500080913801909139010E94CB16883C910512
:100C600030F487E20E941A0B87E20E94F60B80E2C2
:100C7000E8CF0C949A080C949C080C94EC040C9407
:100C80003D060895972F70E02BE0929F600D711D37
:100C90001124FB0197E3899FE00DF11D1124EE0F54
:100CA000FF1FE455FF4F859194910895FC01EE0FCD
:100CB000FF1FE457F84F8591949108950E944206D2
:100CC0000E94CF079C01811540E4940708F097C06B
:100CD000211580E3380708F0FAC0203E310508F0FE
:100CE00074C0203C310508F0E5C0283A310588F48D
:100CF000253A310508F0E2C02130310509F477C00A
:100D0000C9010497813A910508F471C030E020E0F0
:100D10006EC0C901885A91094597C0F7283A310534
:100D200009F4FEC0293A310509F4FDC02A3A31051B
:100D300009F4FCC02B3A310509F4FBC02C3A31050B
:100D400009F4FAC02B3B310509F4F9C02C3B3105FD
:100D500009F4F8C02D3A310509F4F7C0203B3105FC
:100D600009F4F6C02E3A310509F4F5C02F3A3105E1
:100D700009F4F4C0213B310509F4F3C0223B3105ED
:100D800009F4F2C0233B310509F4F1C0243B3105DD
:100D900009F4F0C0253B310509F4EFC0263B3105CD
:100DA00009F4EEC0273B310509F4EDC0283B3105BD
:100DB00009F4ECC0293B310509F4EBC02A3B3105AD
:100DC00009F4EAC020E034E412C0211590E23907AA
:100DD00080F42F3F310509F050F4283E310538F0FA
:100DE000C901805F91093065409708F08FCFC90134
:100DF0000895C9019F700E9456069C01F8CF811585
:100E0000944508F041C0211583E5380708F06AC011
:100E1000211592E5390738F5211541E5340708F029
:100E20005CC0211580E5380708F454C0C90134E0DE
:100E3000969587953A95E1F78370422F46954695AA
:100E4000437090E2499FA0011124582B822F837098
:100E500021E030E002C0220F331F8A95E2F7242BF5
:100E6000352B3C68C4CFC9018370992741E050E01D
:100E700002C0440F551F8A95E2F72695269580E219
:100E8000289F90011124EBCF211596E5390748F4EE
:100E9000922F882721153545C8F59C01246F306AAB
:100EA000A6CFC90190563F708115904108F02ECF12
:100EB00030629DCFC901805C91099DCF253A3105F3
:100EC00049F1263A310549F522E830E490CF33273D
:100ED000306C8DCF3F70306A8ACF322F2227216F3E
:100EE000306A85CFC9018370992741E050E002C084
:100EF000440F551F8A95E2F72695269580E2289F94
:100F000090011124242B352B3A6871CF88279F71CB
:100F10009C01CECF21E830E46ACF23E830E467CFEC
:100F200022EE34E464CF29EE34E461CF2AEE34E4D7
:100F30005ECF25EB34E45BCF26EB34E458CF23EBD4
:100F400034E455CF24EB34E452CF27EB34E44FCFD5
:100F50002CEC34E44CCF2DEC34E449CF23E835E4D9
:100F600046CF2AE835E443CF22E935E440CF24E9EF
:100F700035E43DCF21E236E43ACF23E236E437CF01
:100F800024E236E434CF25E236E431CF26E236E4FB
:100F90002ECF27E236E42BCF2AE236E428CF803E5C
:100FA000910581F1C8F48133910509F462C048F4D8
:100FB0008932910509F456C08A32910509F460C05E
:100FC000089589339105B9F082389105A1F08533F0
:100FD000910509F440C00895863E910561F138F409
:100FE000823E9105B1F0833E9105E1F00895873E80
:100FF000910551F1089520912C022370D9F080EED3
:1010000090E0089520912C0220FF14C089E390E025
:10101000089520912C0222FF0DC024FD09C083EE0B
:1010200090E0089520912C0222FD31C024FF02C0DF
:1010300090E080E0089520912C0223FFFBCF24FD57
:10104000F7CF87EE90E0089520912C0223FFEECF9A
:1010500086EE90E0089520912C0225FFEBCF89E2E7
:1010600090E0089520912C0225FFE4CF85E390E0E5
:10107000089520912C0226FFDDCF8AE290E00895AA
:1010800020912C0226FFD6CF81E390E0089582EED6
:1010900090E0089508950F931F93CF938C01FB0167
:1010A0008281811106C0C1E08C2FCF911F910F91D9
:1010B0000895C0914901C11125C00531104799F724
:1010C0000E944A0881E0809349010E94BF169093D4
:1010D00048018093470110923C0110923E0110920A
:1010E0003D011092400110923F0110924201109276
:1010F0004101109244011092430110924601109256
:101100004501D2CF80914701909148010E94CB16B2
:10111000883C910540F680913C01E82FF0E0EE0F0D
:10112000FF1FE35CFE4F118300838F5F80933C01C0
:10113000C0E0BACF0C94E8040C94E904CF93DF9399
:1011400085B7806885BF85B7806885BFAEE1B1E0AF
:1011500043E251E0C1E0D0E08D91E82FE295EF70DD
:10116000F0E061A18F709E0101C0220F8A95EAF71D
:10117000922F9095962391A382A1822B82A34A1746
:101180005B0751F7A3E1B1E061E070E08D91E82FDA
:10119000E295EF70F0E041A18F709B0101C0220F3A
:1011A0008A95EAF7922F9095942391A382A1822B9E
:1011B00082A381E0AE31B80749F710925501109231
:1011C000540110924B0110924A0110925701109253
:1011D000560110924D0110924C011092590110923B
:1011E000580110924F0110924E0110925B01109223
:1011F0005A01109251011092500110925D0110920B
:101200005C011092530110925201DF91CF910C9426
:1012100039064F925F927F928F929F92AF92BF92C8
:10122000CF92DF92EF92FF920F931F93CF93DF93B2
:101230009AE4492E91E0592E2EE1E22E21E0F22E81
:1012400001E010E099249394E201A990B9902E0155
:10125000DE011E921E92F70181917F01E82FE29537
:10126000EF70F0E091A18F70980101C0220F8A9574
:10127000EAF7892F822B81A382A1822E8094882174
:1012800082A380EA8A95F1F783E1C82E81E0D82E07
:1012900090E080E0E60179916E01472F42954F7012
:1012A00050E0EA0178A04D915C9111977F70E801C0
:1012B00002C0CC0FDD1F7A95E2F7BE01672109F06D
:1012C00072C0B801082E02C0660F771F0A94E2F7B9
:1012D000462B572B11965C934E9301968B309105BC
:1012E000C9F681A1882281A282A1282B22A38D91F7
:1012F0009C91A816B90641F090925E010E94BF161B
:101300009093600180935F01D4E54D16D1E05D06B6
:1013100009F09ACF80915E01882391F180915F015D
:10132000909160010E94CB16069750F180914A017E
:1013300090914B01909355018093540180914C0101
:1013400090914D01909357018093560180914E01E9
:1013500090914F01909359018093580180915001D1
:101360009091510190935B0180935A0180915201B9
:101370009091530190935D0180935C0110925E0106
:101380000E943B0681E0DF91CF911F910F91FF906A
:10139000EF90DF90CF90BF90AF909F908F907F9015
:1013A0005F904F90089570E060E092CFE82FF0E0FA
:1013B000EE0FFF1FEC5AFE4F808191810895089532
:1013C00090936601809365010895E0916501F09125
:1013D0006601309721F00190F081E02D099480E0C2
:1013E0000895E0916501F0916601309721F0028047
:1013F000F381E02D09940895E0916501F091660173
:10140000309721F00480F581E02D09940895209112
:101410006301309164012817390771F090936401DA
:1014200080936301E0916501F0916601309721F0AE
:101430000680F781E02D0994089520916101309193
:1014400062012817390771F090936201809361015E
:10145000E0916501F0916601309721F00084F185FB
:10146000E02D0994089508950C94330A0E94B6164D
:101470000E949E080C9480175F926F927F928F92C9
:101480009F92AF92BF92CF92DF92EF92FF920F9313
:101490001F93CF93DF9300D000D00F92CDB7DEB76C
:1014A0000E94090998E6A92E91E0B92E10E000E00B
:1014B00088248394912C502E802F0E94D6097C0181
:1014C000F501C190D1905F01C816D90609F45DC03D
:1014D0008091FB0181FD0E94DF0990E080E0CE2435
:1014E000DF243401082E02C0660C771C0A94E2F750
:1014F000960126213721232B09F442C089835A8281
:10150000E620F72081E0EF2809F480E08B830E9439
:10151000BF168160782F9D838C8349815A816B81AE
:101520008D810E94F10A000F111FF801E859FE4F4A
:101530008081918168267926718260820E942D1AAD
:101540000E94E509909167018917B1F10E94E509B0
:10155000809367010F900F900F900F900F90DF9185
:10156000CF911F910F91FF90EF90DF90CF90BF90A0
:10157000AF909F908F907F906F905F900C943F06FC
:1015800001968B30910509F0ACCF0F5F1F4F0530EE
:10159000110509F090CF8FEF89838A831B820E9407
:1015A000BF168160782F9D838C8349815A816B811E
:1015B0008D810E94F10AC2CF0F900F900F900F9073
:1015C0000F90DF91CF911F910F91FF90EF90DF90DF
:1015D000CF90BF90AF909F908F907F906F905F90D3
:1015E0000895CF93DF93CDB7DEB72B970FB6F8945E
:1015F000DEBF0FBECDBF4F83588769877A878B8741
:101600001E8285E0FE013796DE01119601900D9253
:101610008A95E1F749815A816B817C818D819E8118
:101620002B960FB6F894DEBF0FBECDBFDF91CF91E2
:101630000C946811882309F4D8C0823871F40E9490
:10164000E50981FDD2C089E30E940D150E94D715DE
:1016500089E30E944A150C94D715833859F40E94E7
:10166000E50980FDC2C083E50E940D150E94D715D3
:1016700083E5EFCF843859F40E94E50982FDB5C0B7
:1016800087E40E940D150E94D71587E4E2CF9CEFF6
:10169000980F913A18F40E940D15DDCF90E2980F43
:1016A000983050F4877091E001C0990F8A95EAF75D
:1016B000892F0E948E15CFCF9BE5980F933070F441
:1016C000853A31F0863A39F083E890E00C94070AC5
:1016D00081E890E0FBCF82E890E0F8CF98E5980FA2
:1016E000953108F082C0883A09F440C0893A09F47B
:1016F00040C08A3A09F440C08B3A09F440C08C3AA1
:1017000009F440C08B3B09F440C08C3B09F440C055
:101710008D3A09F440C0803B09F440C08E3A09F488
:1017200040C08F3A09F440C0813B09F440C0823B7D
:1017300009F440C0833B09F440C0843B09F440C035
:10174000853B09F440C0863B09F440C0873B09F45F
:1017500040C0883B09F440C0893B09F440C08A3B43
:1017600009F440C090E080E00C941D0A82EE90E005
:10177000FBCF89EE90E0F8CF8AEE90E0F5CF85EBD5
:1017800090E0F2CF86EB90E0EFCF83EB90E0ECCFF0
:1017900084EB90E0E9CF87EB90E0E6CF8CEC90E033
:1017A000E3CF8DEC90E0E0CF83E891E0DDCF8AE8F5
:1017B00091E0DACF82E991E0D7CF84E991E0D4CF0C
:1017C00081E292E0D1CF83E292E0CECF84E292E058
:1017D000CBCF85E292E0C8CF86E292E0C5CF87E228
:1017E00092E0C2CF8AE292E0BFCF0895882309F445
:1017F0004BC0823871F40E94E50981FF45C089E33E
:101800000E940D150E94D71589E30E944A150C9479
:10181000D715833859F40E94E50980FF35C083E568
:101820000E940D150E94D71583E5EFCF843859F437
:101830000E94E50982FF28C087E40E940D150E94DE
:10184000D71587E4E2CF9CEF980F913AF0F290E23F
:10185000980F983050F4877091E001C0990F8A95E5
:10186000EAF7892F0E949415D2CF9BE5980F933009
:1018700020F490E080E00C94070A885A853120F427
:1018800090E080E00C941D0A0895882321F00E94C6
:101890008E150C94D7150895882321F00E94941575
:1018A0000C94D71508958F929F92AF92BF92DF92BA
:1018B000EF92FF920F931F93CF93DF9300D000D04E
:1018C0000F92CDB7DEB77C016D837983FC01058172
:1018D00002950F70128111110E94AD150E9406151C
:1018E000D82E882371F01123A1F08D81805E88307D
:1018F00080F082E00E94F0140E94061591E0D82E3C
:10190000D926E981E295EF70F0E0E855FC4D0C94A2
:101910004423D12CF6CF09810F70F981F07F11F0AB
:101920000295007F1123B1F0002361F08D81805E6C
:10193000883018F02D81211109C0802F0E948E154A
:101940000E94D7158D810E941A0B15C0802F0E940E
:101950009F15F6CF8D810E94F60B002361F08D81DB
:10196000805E883018F03D81311129C0802F0E949F
:1019700094150E94D715DD2009F4D3C10E94E31409
:1019800080FDCFC1F70112820E94DD140E94261350
:10199000C7010E94A20E0E94DD140F900F900F90BD
:1019A0000F900F90DF91CF911F910F91FF90EF90CB
:1019B000DF90BF90AF909F908F900C944813802F32
:1019C0000E94A515D6CF49814F70B42E5981507F02
:1019D000503219F0B29480EFB8228D81882369F0DB
:1019E000813029F1112369F1002359F0F701858134
:1019F00080FFA8CF8F70858304C0112361F001118F
:101A000004C08B2D0E94450CB6CF8B2D0130D1F731
:101A10000E94C115B0CF011106C00E94C4158B2DC4
:101A20000E944C0CA8CF013009F4A5CFF6CF1123AA
:101A300021F0063008F09FCFE4CF053008F09BCFAF
:101A4000EECF002361F38D810E94F60B94CF898144
:101A500086958695837069F0813009F08CCF8D81F1
:101A600099819370111102C090E080E00E941D0ADC
:101A700082CF8D8199819370111102C090E080E036
:101A80000E94070A78CF8D81112329F00E943B190B
:101A90000E94221A70CF0E94A319FACF8981837005
:101AA00009F05FC0111167CF2D812295269527700F
:101AB000220F220F8D818F7090E0B0E0A0E04C01EA
:101AC0005D01022E04C0880C991CAA1CBB1C0A9440
:101AD000D2F7FD8160E070E0CB01F4FF0FC06FE052
:101AE00070E080E090E004C0660F771F881F991FA8
:101AF0002A95D2F7609570958095909529812695C5
:101B0000269523702D832230B1F0233019F19B01EB
:101B1000AC01282939294A295B2929833A834B8337
:101B20005C833D8169817A818B819C813130B1F008
:101B30000E94B31220CF9B01AC01282939294A29E0
:101B40005B2929833A834B835C83CA01B9010E94D4
:101B5000DD1211CF0E94B312C501B4010E94891297
:101B60000ACF8695112311F089818170882309F4A9
:101B700002CF2D81229526952770220F220F8D816D
:101B80008F7090E0B0E0A0E04C015D01022E04C037
:101B9000880C991CAA1CBB1C0A94D2F73D8160E0FA
:101BA00070E0CB0134FF0FC06FE070E080E090E0A8
:101BB00004C0660F771F881F991F2A95D2F760957A
:101BC00070958095909549814695469543704D83D3
:101BD0004230B1F0433019F19B01AC012829392979
:101BE0004A295B2929833A834B835C833D81698140
:101BF0007A818B819C813130B1F00E94B913BBCEC8
:101C00009B01AC01282939294A295B2929833A8378
:101C10004B835C83CA01B9010E94E313ACCE0E94DE
:101C2000B913C501B4010E948F13A5CE3D81323F87
:101C300009F447C080F4303F79F1313FD9F1832F67
:101C4000805E8031D0F0112309F456C001117ACEA4
:101C500089818F7133C04D81433FD1F1443F99F762
:101C6000112309F43FC089818F7189830E94261353
:101C700063E089810E94E7147ECE5D815F705D83A1
:101C800089818F71112321F00E9426138D81BACE94
:101C90000E9448138D81C4CE112341F0053008F015
:101CA0006ACE89818F710E946D1365CE063008F06F
:101CB00062CEF7CF89818F71112339F00E942613EC
:101CC0005ACE89818F711123C9F30E94481353CED4
:101CD000112329F089818F710E9411134CCE0E942B
:101CE000071349CE81E00E94F014023008F443CE7D
:101CF00082E00E94F0143FCE0111A5CE89818F7140
:101D0000E4CF49814F706D81C7010E94E5040E94B4
:101D1000021231CE49814F706D81C7010E94410688
:101D20002ACE0F900F900F900F900F90DF91CF91D0
:101D30001F910F91FF90EF90DF90BF90AF909F9019
:101D40008F9008950F931F93CF93DF93EC018B81B6
:101D50009C81892B29F08881998189238F3F29F4DF
:101D6000DF91CF911F910F910895CE010E940A0536
:101D70008823B1F3688179818A810E94B3148C0130
:101D80000E940D140E947E12B801CE01DF91CF9106
:101D90001F910F910C94530C0E94AD150E94BE151B
:101DA0000E9480150E94D7150E94131B0E94221AC0
:101DB00090E080E00E94070A90E080E00C941D0A09
:101DC0000E949C150C94CC0E0E94A714282F892FDA
:101DD00082958F70903C80F48A30B0F4843020F487
:101DE000823090F480E008958630E1F781E0203E73
:101DF00088F0213FB9F70EC08C3011F08F3091F789
:101E000093FB882780F9089581E0203F39F018F48A
:101E1000203E40F70895243F29F7FCCF0895CF9343
:101E2000DF9300D000D00F92CDB7DEB70F900F90A8
:101E30000F900F900F90DF91CF910895CF93DF9384
:101E400000D000D000D0CDB7DEB726960FB6F894FC
:101E5000DEBF0FBECDBFDF91CF9108951F93CF930B
:101E6000DF93E091730116E0809174018E1304C03A
:101E7000DF91CF911F910895CE2FD0E01E9FF001EA
:101E80001124EB58FE4F408151816281738184811E
:101E900095810E941E0FFE013196E770E5CF4091BB
:101EA000A5015091A6016091A7017091A8018091B0
:101EB000A9019091AA010C941E0F1F93CF93DF9359
:101EC0008091AA01807FC1F48091A7018823A1F0AD
:101ED00080917301C09174016091A5017091A60178
:101EE0004091A8015091A901D62FD723DA01A095DE
:101EF000B09516E0C81304C0DF91CF911F910895EB
:101F000090E04115510511F0DF3F31F401968770E3
:101F1000F1CF2A0F3B1F17C0189FF001199FF00D3A
:101F20001124EB58FE4F21812713F0CF2081261377
:101F3000EDCF22812111EACF238134812417350787
:101F400040F3241B350B283C310500F72091AA01F2
:101F50002F7020612093AA0126E0289FF001299F7D
:101F6000F00D1124E658FE4F80818F7080618083D0
:101F700085EA91E00E94A20EDF91CF911F910C940F
:101F80002E0F9F92AF92BF92CF92DF92EF92FF926D
:101F90000F931F93CF93DF93CDB7DEB72B970FB679
:101FA000F894DEBF0FBECDBF8C0185E0F801DE01E5
:101FB000179601900D928A95E1F7D8014C911196F0
:101FC0005C9111971296EC9012978091A8019091D4
:101FD000A901009709F46BC12091A5013091A601D8
:101FE000632F62236F3F09F462C11396CD90DC909A
:101FF0009090A701992009F4F8C0C816D90608F4F2
:102000003FC0F601E81BF90BCF01FF24F394883C95
:10201000910508F0F12C85EAA82E81E0B82E809178
:10202000AA01982F907FFF2009F4B7C0911180C0BA
:10203000FE2C35132AC0241328C0E11026C08F704F
:1020400080618093AA010E944F0FC5010E94A20ED9
:102050008091AA01D80115968C938F2D2B960FB6DF
:10206000F894DEBF0FBECDBFDF91CF911F910F91CE
:10207000FF90EF90DF90CF90BF90AF909F9008952A
:10208000809590958C0D9D1DC0CFCD2829F0842F73
:1020900085238F3F09F019C180E0B82FB170DB2E86
:1020A000E09173012091740136E080FD1CC0EE20A8
:1020B000A1F28091AA0181608093AA01F12CCDCF79
:1020C0008E2F90E03E9FF0011124EB58FE4F61816E
:1020D000651306C06081641303C062816E11E7CF8F
:1020E000FC013196E770E213EBCF4F8358878F8165
:1020F00098850E94A714292F22952F70903260F0A6
:10210000225F2F70223078F49F7051F0F801958192
:10211000907F31F4D12C0AC09F7011F08823D1F345
:10212000805E8830B8F3C8010E94A20EFD2C95CFC6
:10213000351306C0241304C0D801EE2009F47BC077
:102140004F8358878F8198850E94E40E882309F475
:10215000B8C0EE2009F4B5C08091AA01803270F0B9
:102160002091A5013091A6013A8329831B82DD824B
:10217000CC828E83CE0101960E94A20E86E0F801E9
:10218000A5EAB1E001900D928A95E1F70E945D0FFA
:102190000E944F0FFF24F39460CF911113C07C2D48
:1021A000DB86CA866E2D8B850E940F0F85EA91E033
:1021B0000E94A20E86E0F50111928A95E9F70E942D
:1021C0004F0F4BCF3513BCCF2413BACFE110B8CF8C
:1021D000D80115968C93C8010E94A20E86E0F501E5
:1021E00011928A95E9F7F92C38CFC816D90688F1EB
:1021F000B601681B790BCB01F12C883C910508F0E6
:1022000047C0FE2CEE2009F45CC0351330C0241307
:102210002EC08091AA0180FD21C0982F907FF1F0FF
:10222000D80115968C931597903F39F0982F907F91
:10223000905F8F70892B15968C93C8010E94A20E17
:1022400086E0F801A5EAB1E001900D928A95E1F7E8
:10225000B6CF809590958C0D9D1DCECF86E0F80170
:10226000A5EAB1E001900D928A95E1F7F6CE4F8391
:1022700058878F8198850E94E40E81117FCF8091CD
:10228000AA0181608093AA01C8010E94A20EE5CE36
:102290007C2DDB86CA866E2D8B850E940F0F86E013
:1022A000E5EAF1E0DF011D928A95E9F788CFEE209B
:1022B00041F04F8358878F8198850E94E40E8111E9
:1022C0005DCFC8010E94A20E65CF81E08E25E5CECC
:1022D0001F93CF93DF93CDB7DEB72C970FB6F8944B
:1022E000DEBF0FBECDBF4F83588769877A878B8744
:1022F0009C87CE0107960E94C10F882369F08A85CA
:102300009B85892B39F04F815885842F85238F3FFA
:1023100009F071C016E05FC086E0FE013796DE016D
:10232000119601900D928A95E1F78A859B85892BFC
:1023300089F388859F8189238F3F61F32091740100
:1023400030E0C901019687709927409173014817C1
:10235000190671F40E94E00E10927401109273013C
:1023600086E0E5EAF1E0DF011D928A95E9F7D2CF38
:1023700096E0929FD001939FB00D1124AB58BE4FB1
:10238000FE01319601900D929A95E1F780937401C8
:102390000E942E0FBFCF819FC00111248B589E4FEA
:1023A0000E94C10F8823E9F0E09173011E9FF001A4
:1023B0001124EB58FE4F40815181628173818481E9
:1023C00095810E941E0F8091730190E001968770A5
:1023D00099278093730180917301909174018913FF
:1023E000DACF2C960FB6F894DEBF0FBECDBFDF91CB
:1023F000CF911F91089569857A858B859C850E9470
:102400001E0F88CFEF92FF920F931F93CF93DF930E
:102410008C01892B89F0F12CEE24E394E8012196BC
:10242000F8018491843709F457C0A0F4823009F48C
:102430003EC048F48130D1F0DF91CF911F910F91D0
:10244000FF90EF9008959CEF980F9037A8F70E94A7
:102450001A0B0AC0853709F44CC09CE7980F9037D7
:1024600058F78F770E94F60B8E0116C00E5F1F4F34
:10247000FE01849190E2980F983060F48770FE2DF1
:1024800001C0FF0F8A95EAF78F2F0E94B0150E94B6
:10249000D71502C00E941A0B8F2D815008F4BECFB1
:1024A000EFE9FFE03197F1F700C00000F6CF0E5FD3
:1024B0001F4FFE01849190E2980F983050F487707E
:1024C000FE2D01C0FF0F8A95EAF78F2F0E94B615E7
:1024D000DECF0E94F60BE0CF0E5F1F4FFE01C491CE
:1024E000C150D0F28FE99FE00197F1F700C00000E2
:1024F000F7CF0E5F1F4FFE01F490CECF089560938B
:10250000D2017093D3018093D4019093D5010C94A0
:10251000CC0ECF93DF9300D000D0CDB7DEB7698368
:102520007A838B839C838091D2019091D301A09177
:10253000D401B091D50129813A814B815C81822BF4
:10254000932BA42BB52B8093D2019093D301A0930E
:10255000D401B093D5010F900F900F900F90DF91A1
:10256000CF910C94CC0ECF93DF9300D000D0CDB799
:10257000DEB769837A838B839C838091D2019091AB
:10258000D301A091D401B091D50129813A814B8129
:102590005C8182239323A423B5238093D20190935B
:1025A000D301A093D401B093D5010F900F900F9059
:1025B0000F90DF91CF910C94CC0ECF93DF9300D08E
:1025C00000D0CDB7DEB769837A838B839C838091FB
:1025D000D2019091D301A091D401B091D50129816C
:1025E0003A814B815C8182279327A427B52780936A
:1025F000D2019093D301A093D401B093D5010F9051
:102600000F900F900F90DF91CF910C94CC0E109201
:10261000CE011092CF011092D0011092D1010C94F2
:10262000CC0E41E050E060E070E004C0440F551F64
:10263000661F771F8A95D2F74093CE015093CF0142
:102640006093D0017093D1010C94CC0E282F81E0BF
:1026500090E0A0E0B0E004C0880F991FAA1FBB1F44
:102660002A95D2F74091CE015091CF016091D001CF
:102670007091D101842B952BA62BB72B8093CE0183
:102680009093CF01A093D001B093D1010C94CC0EC4
:1026900041E050E060E070E004C0440F551F661F49
:1026A000771F8A95D2F740955095609570958091E7
:1026B000CE019091CF01A091D001B091D10184239E
:1026C0009523A623B7238093CE019093CF01A093A7
:1026D000D001B093D1010C94CC0E282F81E090E072
:1026E000A0E0B0E004C0880F991FAA1FBB1F2A9565
:1026F000D2F74091CE015091CF016091D0017091FD
:10270000D10184279527A627B7278093CE019093E0
:10271000CF01A093D001B093D1010C94CC0ECF93F4
:10272000DF9300D000D0CDB7DEB769837A838B8387
:102730009C838091CE019091CF01A091D001B09166
:10274000D10129813A814B815C81822B932BA42B6F
:10275000B52B8093CE019093CF01A093D001B0937D
:10276000D1010F900F900F900F90DF91CF910C94AB
:10277000CC0ECF93DF9300D000D0CDB7DEB7698306
:102780007A838B839C838091CE019091CF01A0911D
:10279000D001B091D10129813A814B815C818223A2
:1027A0009323A423B5238093CE019093CF01A093CC
:1027B000D001B093D1010F900F900F900F90DF9147
:1027C000CF910C94CC0ECF93DF9300D000D0CDB737
:1027D000DEB769837A838B839C838091CE0190914D
:1027E000CF01A091D001B091D10129813A814B81D3
:1027F0005C8182279327A427B5278093CE019093ED
:10280000CF01A093D001B093D1010F900F900F9002
:102810000F90DF91CF910C94CC0E0895E82F2BE010
:10282000929FE00D11248E2F877041E001C0440F6C
:102830008A95EAF7E695E695E69585E0E89FF0014A
:102840001124E555FE4F30E020E070E05191DF01AA
:102850001197CB01022E02C0969587950A94E2F754
:10286000817081958527842385278C932F5F3F4F27
:102870002530310559F70895E82F2BE0929FE00DA0
:1028800011249E2F9770E695E695E69585E0E89FE2
:10289000F0011124E555FE4F50E040E080E0219129
:1028A00030E0092E02C0369527950A94E2F7217090
:1028B0003327042E01C0220F0A94EAF7822B4F5FC0
:1028C0005F4F4530510559F70895BF92CF92DF927F
:1028D000EF92FF920F931F93CF93DF938C01C090E1
:1028E000CE01D090CF01E090D001F090D101809145
:1028F000D2019091D301A091D401B091D501C82A01
:10290000D92AEA2AFB2ACFE1D0E0BC2ED701C601A2
:102910000C2E04C0B695A795979587950A94D2F783
:1029200080FD0EC0219788F7B12C8B2DDF91CF91C0
:102930001F910F91FF90EF90DF90CF90BF9008957F
:10294000B8018C2F0E945E06019761F3EECFCF9302
:10295000DF93D82FC92F0E9465146D2F7C2FDF9134
:10296000CF910C945E061F93CF93DF93162FD72F32
:1029700090917201992339F0862F972FDF91CF9193
:102980001F910C94A714882391F0862F972F0E94F3
:102990006514C82F682F812F9D2F0E940E14612F60
:1029A0007D2F8C2FDF91CF911F910C945E06862F87
:1029B000972F0E943C14C82FF2CF8091D6018595A5
:1029C0008595859508958091D6018770089598E042
:1029D000899F90011124622B6093D6010C942613D9
:1029E0009091D601809589238093D601282F277056
:1029F00061F4282F082E000C330B9217130629F0D0
:102A00008595859585950C94481308959091D601E8
:102A1000977081E009F480E0089590911201992364
:102A2000E1F090912C0297FF18C0E82FE695E6950B
:102A3000E695EF3139F12091000130910101E20F6B
:102A4000F32FF11D877021E030E001C0220F8A953D
:102A5000EAF78181822B81830895209100013091D2
:102A60000101F90132969FEF40E05191851751F035
:102A70009F3F19F4511101C0942F4F5F4E31A9F7B8
:102A80009F3F09F40895290F311D97FD3A95F901EB
:102A90008283089590911201992301F190912C0263
:102AA00097FF1CC0E82FE695E695E695EF3139F1E2
:102AB0002091000130910101E20FF32FF11D877089
:102AC00021E030E0A90102C0440F551F8A95E2F7CA
:102AD000CA01809591818923818308952091000105
:102AE00030910101F9013296205E3F4F9191891397
:102AF00003C0DF0111971C92E217F307B9F708959D
:102B000081E090E0E0910001F0910101E80FF91FF0
:102B10001082019680329105A9F708959091FA01EB
:102B2000982B9093FA010895982F90958091FA012F
:102B300089238093FA0108951092FA0108959091E3
:102B4000F901982B9093F9010895982F9095809111
:102B5000F90189238093F90108951092F9010895EC
:102B60009091F801982B9093F8010895982F9095E3
:102B70008091F80189238093F80108951092F8015B
:102B800008958093D70108951092D7010895209158
:102B9000000130910101F9013196205E3F4F80E044
:102BA000919191118F5FE217F307D1F70895E091AA
:102BB0000001F09101018091FA018083E091000110
:102BC000F091010180819091F901892B8083E0913E
:102BD0000001F091010180819091F801892B80839F
:102BE0009091D701992361F0E0910001F0910101EA
:102BF0008081892B80830E94C71581111092D70193
:102C000080910001909101010C94F1096DEE7EEF2D
:102C100090E080E00E947E2360E082E090E00E94ED
:102C20006C2360E083E090E00E946C2360E084E02D
:102C300090E00E946C2360E085E090E00C946C23AF
:102C400090E080E00E9466239C0181E02D3E3E4F93
:102C500009F080E0089582E090E00C945E23682FF4
:102C600082E090E00C946C2383E090E00C945E236F
:102C7000682F83E090E00C946C2384E090E00C9447
:102C80005E23682F84E090E00C946C2380913202E4
:102C9000843039F11092FC0188E190E020E40FB615
:102CA000F894A895809360000FBE2093600080E0A8
:102CB0000E943F0683B7817F846083BF83B78160B2
:102CC00083BF7894889583B78E7F83BF0FB6F894BF
:102CD000A8958091600088618093600010926000E8
:102CE0000FBE089508950895CF930E9472160E9412
:102CF00009090E947316C0E08C2F0E94D609892B07
:102D000031F4CF5FC530C1F780E0CF91089581E005
:102D1000FCCF0E94E00E0E94E5090C943F061F9232
:102D20001FB61F9211248F939F93AF93BF938091EF
:102D3000FC01811113C08091280290912902A09179
:102D40002A02B0912B024196A11DB11D8093280249
:102D500090932902A0932A02B0932B02BF91AF91C6
:102D60009F918F911F901FBE1F90189582E084BD88
:102D700093E095BD9AEF97BD80936E0008952FB7AD
:102D8000F8948091280290912902A0912A02B09192
:102D90002B022FBF0895CF92DF92EF92FF929C01FA
:102DA0004FB7F8948091280290912902A0912A02AD
:102DB000B0912B024FBF6C017D01EE24FF24A901CD
:102DC00070E060E0C416D506E606F70638F0821B10
:102DD000930BFF90EF90DF90CF9008950197F7CF7E
:102DE0001F921FB61F9211248F939F93AF93BF938F
:102DF0008091280290912902A0912A02B0912B0281
:102E00000196A11DB11D8093280290932902A093E1
:102E10002A02B0932B02BF91AF919F918F911F9087
:102E20001FBE1F9018950E94071FF8942FEF87EA86
:102E300091E6215080409040E1F700C0000087E01B
:102E400090EBDC0180933B0290933C02A0933D0207
:102E5000B0933E0288E19CE00FB6F894A895809369
:102E600060000FBE90936000FFCFAF92BF92CF92F1
:102E7000DF92EF92FF920F931F93CF93C0E0AA24AB
:102E8000A394B12CE82EF12C8C2F0E94D6096C0152
:102E900010E000E0C501002E02C0880F991F0A94BF
:102EA000E2F78C219D21892B99F0602F7C2F80E007
:102EB0000E944206E816F90659F481E0CF911F916D
:102EC0000F91FF90EF90DF90CF90BF90AF9008955B
:102ED0000F5F1F4F0B301105E9F6CF5FC530A1F62C
:102EE00080E0ECCFCF93C82F8CE20E943517882367
:102EF00021F08C2FCF910C94351780E0CF9108955D
:102F0000CF93DF9300D000D0CDB7DEB70E9420165C
:102F1000811102C00E94061695E6998308C00E949E
:102F200009098FE39CE90197F1F700C00000A9812E
:102F3000A150A983A111F3CF89E20E9472178111D8
:102F400010C18AE20E94721781110E94061685E064
:102F50000E94721781110E9413170E942B168093F2
:102F6000FB0187E00E947217882371F08BE10E94B9
:102F70007217882309F4D1C09091FB01892F8D7FAE
:102F800091FF82608093FB018091FB010E942F16CC
:102F90000E943D1690E090932D0280932C0280EECB
:102FA0000E947217882341F090912C02892F8E7F06
:102FB00090FF816080932C0289E30E94721788231E
:102FC00041F090912C02892F8D7F91FF8260809338
:102FD0002C0282EE0E947217882341F090912C02FD
:102FE000892F8B7F92FF846080932C0286EE0E9453
:102FF0007217882341F090912C02892F877F93FFCD
:10300000886080932C0283EE0E947217882341F01F
:1030100090912C02892F8F7E94FF806180932C02E7
:1030200085E30E947217882341F090912C02892F2A
:103030008F7D95FF806280932C0281E30E9472173E
:10304000882341F090912C02892F8F7B96FF80641A
:1030500080932C0281E10E947217882341F09091A5
:103060002C02892F97FB87F9805880932C0280913E
:103070002C020E94411687E20E94721789838EE11A
:103080000E947217882319F0B981B260B9838FE169
:103090000E947217882319F029812460298380E215
:1030A0000E947217882319F039813860398381E2D0
:1030B0000E947217882319F049814061498382E296
:1030C0000E947217882319F059815062598383E254
:1030D0000E947217882319F089818064898384E2B1
:1030E0000E9472178823B1F1998190689983898130
:1030F0000E9438163981232F30E050E040E02983C8
:103100003A834B835C83CA01B9010F900F900F90F3
:103110000F90DF91CF910C947F128EE00E94721776
:10312000882339F09091FB01892F8B7F92FF846077
:1031300029CF80E10E9472179091FB01882329F02A
:10314000892F877F93FF88601DCF892F8E7F90FF07
:10315000816018CFA981A111CACF0E943416282FEF
:10316000CBCF0F900F900F900F90DF91CF910895DC
:103170008091FF0180FF12C06091050185E0689F8A
:10318000B00111247595679575956795603871053F
:10319000A8F561157105A1F1862F089581FF09C079
:1031A0006091050185E0689FB001112475956795D0
:1031B000EDCF6091050182FD0AC080910002882355
:1031C000D1F09091040160910501891728F085E004
:1031D000689FB0011124DACF869FB001112485E0E9
:1031E000869F9001879F300D1124692F70E0C901DF
:1031F0000E943023CBCF65E070E0CECF8FE70895FB
:1032000081E008958091FF0180FF0CC0609103016F
:1032100070E075956795759567956115710549F12C
:10322000862F089581FF06C06091030170E07595B7
:103230006795F3CF6091030182FD0BC0909100026E
:103240009923A1F06091020180910301961738F053
:10325000682F70E06038710500F38FE70895899F4B
:10326000C001112470E00E943023F4CF61E070E0CF
:10327000D7CF81E00895803F31F40E94B81881953E
:10328000809303020895813F19F40E94B818F8CF83
:10329000823F31F40E94B81881958093020208950C
:1032A000833F19F40E94B818F8CF893F29F40E948F
:1032B00002198093040208958A3F21F40E940219A2
:1032C0008195F7CF8B3F31F40E940219819580934D
:1032D000050208958C3F19F40E940219F8CF843F2B
:1032E00031F4809101028160809301020895853F4D
:1032F00021F4809101028260F7CF863F21F4809112
:1033000001028460F1CF873F21F48091010288603F
:10331000EBCF883F21F4809101028061E5CF8D3FA2
:1033200031F48091FF0181608093FF0108958E3F09
:1033300021F48091FF018260F7CF8F3FB9F7809130
:10334000FF018460F1CF90910202803F41F48091AF
:10335000030287FD10920302992371F00895813FC3
:1033600029F4809103021816ACF3F6CF823F81F462
:1033700097FFF2CF10920202809103029091040213
:10338000892B90910502892B49F71092000208952C
:10339000833F19F4191674F3DFCF893F39F4809114
:1033A00004021816CCF610920402D6CF8A3F29F4F4
:1033B0008091040287FFD0CFF6CF8B3F39F4809104
:1033C000050287FFC9CF10920502C6CF8C3F29F4B2
:1033D000809105021816BCF3BFCF843F31F4809171
:1033E00001028E7F80930102B7CF853F21F4809147
:1033F00001028D7FF7CF863F21F4809101028B7F00
:10340000F1CF873F21F480910102877FEBCF883F86
:1034100021F4809101028F7EE5CF8D3F31F48091C0
:10342000FF018E7F8093FF0197CF8E3F21F4809123
:10343000FF018D7FF7CF8F3F09F08ECF8091FF0185
:103440008B7FF0CF81E092E00E94FC090E94BF16C2
:103450009093FE018093FD0108951F93CF93DF9316
:1034600000D000D000D0CDB7DEB78091FD019091A3
:10347000FE010E94CB16AC01809100022091060152
:1034800030E0811106C0209107019AE0299F900148
:1034900011244217530788F020910202A0910302E1
:1034A000A98310910402B0910502BE8321110FC0BF
:1034B0009A2F912B9B2B09F0B2C026960FB6F89449
:1034C000DEBF0FBECDBFDF91CF911F9108958F3F1B
:1034D00019F08F5F80930002121624F40E94B8182E
:1034E000809302028091020287FF05C00E94B818F3
:1034F0008195809302022981121624F40E94B81843
:10350000809303028091030287FF05C00E94B818D0
:1035100081958093030280910202882309F455C0AB
:10352000309103023D83332309F44FC0282F880FC5
:10353000330B440B550B29833A834B835C83CA01BD
:10354000B9010E94372223E333E343E35FE3698356
:103550007A838B839C8369817A818B819C810E9491
:103560009B2269837A838B839C8369817A818B8197
:103570009C810E94FF21609302028D81082E000C25
:10358000990BAA0BBB0B89839A83AB83BC83BC01C9
:10359000CD010E94372223E333E343E35FE36983F2
:1035A0007A838B839C8369817A818B819C810E9441
:1035B0009B2269837A838B839C8369817A818B8147
:1035C0009C810E94FF2160930302111624F40E9443
:1035D0000219809304028091040287FF05C00E94B3
:1035E00002198195809304029E81191624F40E9489
:1035F0000219809305028091050287FF05C00E9491
:10360000021981958093050226960FB6F894DEBFC5
:103610000FBECDBFDF91CF911F910C94221A8F3F27
:1036200009F057CF68CF85E0E1E0F2E0DF011D92BD
:103630008A95E9F7109200021092FF010895809197
:1036400026020895CF93DF9300D00F92CDB7DEB757
:1036500020913202243019F523E029838A839B8349
:103660002093E9008FEF9091E800815095FD06C00E
:1036700095ED9A95F1F700008111F5CF8091E80062
:1036800085FF0DC050E040E063E070E0CE010196A0
:103690000E947F1D8091E8008E778093E8000F9054
:1036A0000F900F90DF91CF910895CF93DF9300D0CB
:1036B0000F92CDB7DEB79C0180913202843031F594
:1036C00082E08983205831093B832A8383E08093F9
:1036D000E9008FEF9091E800815095FD06C095EDCF
:1036E0009A95F1F700008111F5CF8091E80085FFF0
:1036F0000DC050E040E063E070E0CE0101960E9412
:103700007F1D8091E8008E778093E8000F900F90E6
:103710000F90DF91CF910895209132022430F1F47F
:1037200022E02093E9002FEF3091E800215035FD91
:1037300006C035ED3A95F1F700002111F5CF209143
:10374000E80025FF0BC050E040E065E070E00E941B
:103750007F1D8091E8008E778093E8000895CF93D5
:10376000DF93D82FC92F809132028430F1F49091E9
:1037700012019923E9F090912C0297FF19C08093D0
:10378000E9008FEF9091E800815095FD06C095E12A
:103790009A95F1F700008111F5CF8091E80050E093
:1037A00040E060E270E085FD1AC0DF91CF9108959E
:1037B00081E08093E9008FEF9091E800815095FDC2
:1037C00006C095ED9A95F1F700008111F5CF809133
:1037D000E80085FFEACF50E040E068E070E08D2F20
:1037E0009C2F0E947F1D8091E8008E778093E800D7
:1037F00080E2ED2FFC2FA6E0B2E001900D928A95B9
:10380000E1F7D3CF80913102811109C00E94071FD7
:103810000E94641F8091E20084608093E20008951A
:10382000109231020895089508950C94891642E08B
:1038300061EC81E00E94831E42E061EC82E00E9424
:10384000831E42E061EC83E00E94831E42E261EC51
:1038500084E00C94831E80913402893089F148F40D
:10386000823009F494C0833009F44FC0813041F0B4
:1038700008958A3009F47BC08B3009F461C0089543
:1038800080913302813A09F03FC08091E800877F40
:103890008093E8008091370290913802892B61F47F
:1038A00060E286E092E070E00E94CE1D8091E80028
:1038B0008B778093E800089560E090E080E0F3CF9C
:1038C00080913302813201F5809137029091380264
:1038D000009711F00397C1F48091E800877F8093EF
:1038E000E8008091E80082FF0BC08091F100809396
:1038F00026028091E8008B778093E8000C94B71E35
:10390000809132028111EDCF089580913302813A86
:10391000D9F78091370290913802892BA9F78091CD
:10392000E800877F8093E8008091E80080FFFCCF6B
:10393000809112018093F1008091E8008E77DCCFB6
:1039400080913302813201F78091370290913802E1
:10395000892BD1F68091E800877F8093E8000E9450
:10396000B71E80913502809312010C94E00E809175
:103970003302813249F68091E800877F8093E80026
:103980000E94B71E8091360280932702089580918D
:103990003302813A09F0B8CF8091E800877F8093A5
:1039A000E8008091E80080FFFCCF80912702C2CF21
:1039B00084B7877F84BF0FB6F894A8958091600084
:1039C000886180936000109260000FBE80E8809351
:1039D0006100109261000E94340A0E94071F0E9439
:1039E000641F8091E20084608093E20078940E94DA
:1039F000E4210E94360A88E091E00E94E00980916B
:103A00003202853019F00E943C0AF9CF0E94461616
:103A100080913002882399F30E947416882379F3E9
:103A20000E94691DECCF9C01DA01892F9927833010
:103A30009105C1F068F48130910509F445C0029701
:103A400061F48DE690E02CEB37E02D933C930895E4
:103A500081329105E1F0829739F190E080E030E029
:103A600020E0F3CFC9019927213059F08230910528
:103A700059F0E8EBF7E0892B81F7849190E09F0102
:103A8000E4CFE0EAF7E0F9CFECE8F7E0F6CF643016
:103A900020F7E62FF0E0EE0FFF1FE15DFE4F2081E3
:103AA000318189E090E0D1CF6430B8F670E0FB015D
:103AB000EE0FFF1FE95DFE4F208131816D5D7E4F6E
:103AC000FB01808190E0C1CF82E190E029E238E003
:103AD000BCCF80E189BD82E189BD09B400FEFDCF84
:103AE0008091D8008F7D8093D8008091E000826023
:103AF0008093E0008091E00081FDFCCF0895AF92BB
:103B0000BF92CF92DF92FF920F931F93CF93DF93D9
:103B10006C01EB018A010E94D61EF82E811123C090
:103B20000115110539F0F80180819181C81BD90B6D
:103B3000C80ED91EB12CA12C2097A9F08091E800C5
:103B400085FD22C08091E8008E778093E800011502
:103B50001105A1F0F80180819181A80EB91EB182F2
:103B6000A08285E0F82E8F2DDF91CF911F910F91CC
:103B7000FF90DF90CF90BF90AF9008950E94D61E27
:103B80008823D1F2F82EEFCFF60181916F01809357
:103B9000F1002197FFEFAF1ABF0ACECFFC01CB0196
:103BA0002091390230913A022617370790F000979A
:103BB00029F42091E8002E772093E80040E0009758
:103BC00051F4411108C08091E80082FF31C080E0CB
:103BD0000895C901F3CF209132022223A9F12530A3
:103BE000A9F12091E80023FD2DC02091E80022FDDD
:103BF000EACF2091E80020FFE2CF3091F30020913E
:103C0000F200009719F02830310558F041E02830D3
:103C1000310509F040E02091E8002E772093E8007C
:103C2000CECF41914093F10001972F5F3F4FE9CFF5
:103C300080913202882341F0853041F08091E80084
:103C400083FFC1CF81E0089582E0089583E0089565
:103C5000FC01CB012091390230913A022617370737
:103C600090F0009729F42091E8002E772093E80047
:103C700040E0009751F4411108C08091E80082FFB4
:103C800032C080E00895C901F3CF2091320222238F
:103C9000B1F12530B1F12091E80023FD2EC0209133
:103CA000E80022FDEACF2091E80020FFE2CF30912A
:103CB000F3002091F200009719F02830310558F0F8
:103CC00041E02830310509F040E02091E8002E77EE
:103CD0002093E800CECF44914093F10031960197B4
:103CE0002F5F3F4FE8CF80913202882341F085302B
:103CF00041F08091E80083FFC0CF81E0089582E029
:103D0000089583E00895982F973028F08F7080935E
:103D1000E90081E008959093E900242F762F50E088
:103D2000981731F07091EC002091ED005091F00067
:103D300021FD02C09F5FE8CF3091EB003E7F3093C2
:103D4000EB003091ED003D7F3093ED003091EB00C2
:103D500031603093EB007093EC002093ED005093B2
:103D6000F0002091EE0027FDE5CF80E008958091DE
:103D7000330287FF13C08091E80082FF06C0809164
:103D8000E8008B778093E80004C0809132028111B3
:103D9000F2CF0895809132028823D9F38091E80010
:103DA00080FFF8CF8091E8008E77ECCF2091E4007F
:103DB0003091E50095E6A9012091EC00822F8170F9
:103DC00020FF06C08091E80080FF06C080E00895D3
:103DD0002091E80022FD1AC080913202882389F0E8
:103DE000853089F08091EB0085FD0FC02091E400C3
:103DF0003091E50042175307F9F29150E1F684E063
:103E0000089582E0089583E0089581E008950E9476
:103E1000751F0E947D1FE0EEF0E08081816080834D
:103E2000E8EDF0E080818F77808319BCA7EDB0E0EA
:103E30008C918E7F8C9380818F7E80831092310253
:103E400008950F931F93CF93DF930E94751F0E94D5
:103E50007D1FC8EDD0E088818F7788838881806856
:103E6000888388818F7D888319BC109232021092DA
:103E70002E021092300210922F0200EE10E0F80194
:103E800080818B7F808388818160888342E060E0CD
:103E900080E00E94831EE1EEF0E080818E7F8083CF
:103EA000E2EEF0E0808181608083808188608083A1
:103EB000F80180818E7F8083888180618883DF9193
:103EC000CF911F910F910895E8EDF0E080818F7EF2
:103ED0008083E7EDF0E080818160808384E082BFB1
:103EE00081E0809331020C94211FE8EDF0E08081A5
:103EF0008E7F80831092E20008951092DA00109273
:103F0000E10008951F920F920FB60F9211242F9384
:103F10003F934F935F936F937F938F939F93AF9351
:103F2000BF93EF93FF938091E10082FF0BC08091DC
:103F3000E20082FF07C08091E1008B7F8093E10067
:103F40000E94E3218091DA0080FF19C08091D8009F
:103F500080FF15C08091DA008E7F8093DA00809117
:103F6000D90080FF94C080E189BD82E189BD09B498
:103F700000FEFDCF81E0809332020E94021C8091FE
:103F8000E10080FF19C08091E20080FF15C08091A0
:103F9000E2008E7F8093E2008091E2008061809356
:103FA000E2008091D80080628093D80019BC85E03F
:103FB000809332020E94141C8091E10084FF29C08A
:103FC0008091E20084FF25C080E189BD82E189BD46
:103FD00009B400FEFDCF8091D8008F7D8093D8007A
:103FE0008091E1008F7E8093E1008091E2008F7EDE
:103FF0008093E2008091E20081608093E2008091F2
:104000002E02882309F449C084E0809332020E9482
:10401000151C8091E10083FF29C08091E20083FF9D
:1040200025C08091E100877F8093E10082E080934A
:10403000320210922E028091E1008E7F8093E10087
:104040008091E2008E7F8093E2008091E2008061A7
:104050008093E20042E060E080E00E94831E809155
:10406000F00088608093F0000E94131CFF91EF9194
:10407000BF91AF919F918F917F916F915F914F9180
:104080003F912F910F900FBE0F901F90189519BC64
:10409000109232020E94101C72CF8091E30087FDC3
:1040A00002C081E0B2CF83E0B0CF1F920F920FB673
:1040B0000F9211242F933F934F935F936F937F93AE
:1040C0008F939F93AF93BF93CF93DF93EF93FF9320
:1040D000D091E900DF708091EC00C82FC17080FDA5
:1040E000C0E81092E9008091F000877F8093F00093
:1040F00078940E9499201092E9008091F0008860E5
:104100008093F000CD2BCF70C093E900FF91EF9129
:10411000DF91CF91BF91AF919F918F917F916F91DF
:104120005F914F913F912F910F900FBE0F901F9075
:1041300018951F93CF93DF93CDB7DEB7AA970FB62D
:10414000F894DEBF0FBECDBF83E392E0FC01019681
:104150002091F100208322E08B339207B9F70E946F
:104160002B1C8091E80083FF16C18091330290914F
:1041700034029A3008F00FC1E92FF0E0E854FC4D0A
:104180000C944423803881F0823809F004C1809176
:1041900037028F708093E9008091EB0085FB8827C0
:1041A00080F91092E90006C080912F0290913002B0
:1041B000911182609091E800977F9093E80080933E
:1041C000F1001092F1008091E8008E77E0C0882322
:1041D00009F4CEC0823009F0DEC080913502811131
:1041E000D1C0809137028F7009F4D5C08093E90067
:1041F0002091EB0020FFC6C0933031F48091EB009A
:1042000080628093EB00BEC09091EB009061909330
:10421000EB0021E030E001C0220F8A95EAF72093FD
:10422000EA001092EA008091EB008860EACF8111E9
:10423000B2C0109135021F778091E3008078812B06
:104240008093E3008091E800877F8093E8000E94DC
:10425000B71E8091E80080FFFCCF8091E30080686A
:104260008093E30082E0111183E08093320293C0D7
:104270008058823008F08FC08091350290913602CC
:104280008C3D23E09207A1F583E08A838AE289834B
:104290004FB7F894DE01139620E03EE051E2E32FA1
:1042A000F0E050935700E49120FF03C0E295EF70D7
:1042B0003F5FEF708E2F90E0EA30C0F0C7968D938D
:1042C0009D932F5F243159F74FBF8091E800877F7E
:1042D0008093E8006AE270E0CE0101960E94CE1D54
:1042E0008091E8008B778093E80055C0C096E7CFB7
:1042F000AE014F5F5F4F609137020E94131DBC01FA
:10430000892B09F448C08091E800877F8093E800FA
:1043100089819A810E94281EE3CF8038E1F580913F
:10432000E800877F8093E80080912E028093F1005F
:104330004ACF811130C090913502923060F5809162
:10434000E800877F8093E80090932E020E94B71EBA
:1043500080912E02882311F084E005C08091E30053
:1043600087FDFACF81E0809332020E94171C13C0B0
:1043700080913502813079F481E0933009F080E05A
:10438000809330021092E9008091E800877F80934B
:10439000E8000E94B71E8091E80083FF0AC0809168
:1043A000E800877F8093E8008091EB008062809333
:1043B000EB00AA960FB6F894DEBF0FBECDBFDF911B
:1043C000CF911F9108950895CF9380913202882351
:1043D000A1F0C091E900CF709091EC00892F81701D
:1043E00090FD80E8C82B1092E9008091E80083FDE1
:1043F0000E949920CF70C093E900CF9108950E9448
:1044000006226894B1110C94952208950E947A2294
:1044100088F09F5798F0B92F9927B751B0F0E1F085
:10442000660F771F881F991F1AF0BA95C9F714C035
:10443000B13091F00E949422B1E008950C9494223E
:10444000672F782F8827B85F39F0B93FCCF386956E
:1044500077956795B395D9F73EF4909580957095CB
:1044600061957F4F8F4F9F4F0895E89409C097FB48
:104470003EF490958095709561957F4F8F4F9F4F3B
:104480009923A9F0F92F96E9BB279395F69587957F
:1044900077956795B795F111F8CFFAF4BB0F11F442
:1044A00060FF1BC06F5F7F4F8F4F9F4F16C08823E9
:1044B00011F096E911C0772321F09EE8872F762F1F
:1044C00005C0662371F096E8862F70E060E02AF060
:1044D0009A95660F771F881FDAF7880F969587954C
:1044E00097F9089557FD9058440F551F59F05F3FB5
:1044F00071F04795880F97FB991F61F09F3F79F006
:1045000087950895121613061406551FF2CF469587
:10451000F1DF08C0161617061806991FF1CF869509
:104520007105610508940895E894BB2766277727ED
:10453000CB0197F908950E94AE220C941F230E948C
:10454000112338F00E94182320F0952311F00C94C9
:1045500008230C940E2311240C9495220E9472229D
:1045600070F3959FC1F3950F50E0551F629FF001C6
:10457000729FBB27F00DB11D639FAA27F00DB11DDF
:10458000AA1F649F6627B00DA11D661F829F222768
:10459000B00DA11D621F739FB00DA11D621F839FEF
:1045A000A00D611D221F749F3327A00D611D231FC5
:1045B000849F600D211D822F762F6A2F11249F5713
:1045C00050409AF0F1F088234AF0EE0FFF1FBB1F16
:1045D000661F771F881F91505040A9F79E3F5105D5
:1045E00080F00C9408230C9495225F3FE4F3983EEE
:1045F000D4F3869577956795B795F795E7959F5F7F
:10460000C1F7FE2B880F911D9695879597F9089510
:1046100097F99F6780E870E060E008959FEF80EC75
:10462000089500240A941616170618060906089518
:1046300000240A9412161306140605060895092E7E
:104640000394000C11F4882352F0BB0F40F4BF2BED
:1046500011F460FF04C06F5F7F4F8F4F9F4F08952D
:1046600097FB072E16F4009407D077FD09D00E941F
:104670004A2307FC05D03EF4909581959F4F0895FD
:10468000709561957F4F0895EE0FFF1F0590F4918F
:10469000E02D0994AA1BBB1B51E107C0AA1FBB1F39
:1046A000A617B70710F0A61BB70B881F991F5A95BE
:1046B000A9F780959095BC01CD010895F999FECF99
:1046C00092BD81BDF89A992780B50895A8E1B0E020
:1046D00042E050E00C948623262FF999FECF92BD3C
:1046E00081BDF89A019700B4021639F01FBA20BDB7
:1046F0000FB6F894FA9AF99A0FBE08950196272FEB
:104700000E946D230C946C23DC01CB01FC01F99910
:10471000FECF06C0F2BDE1BDF89A319600B40D920D
:1047200041505040B8F70895F894FFCFAA05B60558
:10473000BA05BE05C205C605CA05CE05D205D60511
:10474000DA05DE05E205E605EA05EE05F205F60501
:104750008B0C8B0CE30CE30C270D430DBB0CBB0C3B
:104760004E0DBB0C160E160E810EBB0CBB0C8A0E2A
:10477000C220E720CB21E720CB2117213821CB21F4
:044780008D219921CD
:10478400D8012808140A321E1F1BAF1B8C1B551B93
:10479400221B01F792676636353497969490F0F6AB
:1047A400F5F4F1404D3639F708AA0874083B08CEF1
:0847B40007E7070008190800DF
:00000001FF
